{
  "_format": "hh-sol-artifact-1",
  "contractName": "CounterUpgradeableWithLibrary",
  "sourceName": "contracts/CounterUpgradeableWithLibrary.sol",
  "abi": [
    {
      "inputs": [],
      "stateMutability": "nonpayable",
      "type": "constructor"
    },
    {
      "inputs": [
        {
          "internalType": "address",
          "name": "target",
          "type": "address"
        }
      ],
      "name": "AddressEmptyCode",
      "type": "error"
    },
    {
      "inputs": [
        {
          "internalType": "address",
          "name": "implementation",
          "type": "address"
        }
      ],
      "name": "ERC1967InvalidImplementation",
      "type": "error"
    },
    {
      "inputs": [],
      "name": "ERC1967NonPayable",
      "type": "error"
    },
    {
      "inputs": [],
      "name": "FailedInnerCall",
      "type": "error"
    },
    {
      "inputs": [],
      "name": "InvalidInitialization",
      "type": "error"
    },
    {
      "inputs": [],
      "name": "NotInitializing",
      "type": "error"
    },
    {
      "inputs": [],
      "name": "UUPSUnauthorizedCallContext",
      "type": "error"
    },
    {
      "inputs": [
        {
          "internalType": "bytes32",
          "name": "slot",
          "type": "bytes32"
        }
      ],
      "name": "UUPSUnsupportedProxiableUUID",
      "type": "error"
    },
    {
      "anonymous": false,
      "inputs": [
        {
          "indexed": false,
          "internalType": "uint64",
          "name": "version",
          "type": "uint64"
        }
      ],
      "name": "Initialized",
      "type": "event"
    },
    {
      "anonymous": false,
      "inputs": [
        {
          "indexed": true,
          "internalType": "address",
          "name": "implementation",
          "type": "address"
        }
      ],
      "name": "Upgraded",
      "type": "event"
    },
    {
      "inputs": [],
      "name": "UPGRADE_INTERFACE_VERSION",
      "outputs": [
        {
          "internalType": "string",
          "name": "",
          "type": "string"
        }
      ],
      "stateMutability": "view",
      "type": "function"
    },
    {
      "inputs": [],
      "name": "counter",
      "outputs": [
        {
          "internalType": "uint256",
          "name": "value",
          "type": "uint256"
        }
      ],
      "stateMutability": "view",
      "type": "function"
    },
    {
      "inputs": [],
      "name": "increase",
      "outputs": [],
      "stateMutability": "nonpayable",
      "type": "function"
    },
    {
      "inputs": [
        {
          "internalType": "uint256",
          "name": "initialValue",
          "type": "uint256"
        }
      ],
      "name": "initialize",
      "outputs": [],
      "stateMutability": "nonpayable",
      "type": "function"
    },
    {
      "inputs": [],
      "name": "owner",
      "outputs": [
        {
          "internalType": "address",
          "name": "",
          "type": "address"
        }
      ],
      "stateMutability": "view",
      "type": "function"
    },
    {
      "inputs": [],
      "name": "proxiableUUID",
      "outputs": [
        {
          "internalType": "bytes32",
          "name": "",
          "type": "bytes32"
        }
      ],
      "stateMutability": "view",
      "type": "function"
    },
    {
      "inputs": [
        {
          "internalType": "address",
          "name": "newImplementation",
          "type": "address"
        },
        {
          "internalType": "bytes",
          "name": "data",
          "type": "bytes"
        }
      ],
      "name": "upgradeToAndCall",
      "outputs": [],
      "stateMutability": "payable",
      "type": "function"
    },
    {
      "inputs": [],
      "name": "value",
      "outputs": [
        {
          "internalType": "uint256",
          "name": "",
          "type": "uint256"
        }
      ],
      "stateMutability": "view",
      "type": "function"
    }
  ],
  "bytecode": "0x60a06040523073ffffffffffffffffffffffffffffffffffffffff1660809073ffffffffffffffffffffffffffffffffffffffff168152503480156200004457600080fd5b50620000556200005b60201b60201c565b620001cf565b60006200006d6200016560201b60201c565b90508060000160089054906101000a900460ff1615620000b9576040517ff92ee8a900000000000000000000000000000000000000000000000000000000815260040160405180910390fd5b67ffffffffffffffff80168160000160009054906101000a900467ffffffffffffffff1667ffffffffffffffff1614620001625767ffffffffffffffff8160000160006101000a81548167ffffffffffffffff021916908367ffffffffffffffff1602179055507fc7f505b2f371ae2175ee4913f4499e1f2633a7b5936321eed1cdaeb6115181d267ffffffffffffffff604051620001599190620001b2565b60405180910390a15b50565b60007ff0c57e16840df040f15088dc2f81fe391c3923bec73e23a9662efc9c229c6a00905090565b600067ffffffffffffffff82169050919050565b620001ac816200018d565b82525050565b6000602082019050620001c96000830184620001a1565b92915050565b6080516111f9620001f9600039600081816104dc0152818161053101526107e301526111f96000f3fe60806040526004361061007b5760003560e01c80638da5cb5b1161004e5780638da5cb5b1461011d578063ad3cb1cc14610148578063e8927fbc14610173578063fe4b84df1461018a5761007b565b80633fa4f245146100805780634f1ef286146100ab57806352d1902d146100c757806361bc221a146100f2575b600080fd5b34801561008c57600080fd5b506100956101b3565b6040516100a29190610bdf565b60405180910390f35b6100c560048036038101906100c09190610db2565b6101bf565b005b3480156100d357600080fd5b506100dc6101de565b6040516100e99190610e27565b60405180910390f35b3480156100fe57600080fd5b50610107610211565b6040516101149190610bdf565b60405180910390f35b34801561012957600080fd5b5061013261021d565b60405161013f9190610e51565b60405180910390f35b34801561015457600080fd5b5061015d610243565b60405161016a9190610eeb565b60405180910390f35b34801561017f57600080fd5b5061018861027c565b005b34801561019657600080fd5b506101b160048036038101906101ac9190610f39565b6102e8565b005b60008060000154905090565b6101c76104da565b6101d0826105c0565b6101da82826106c2565b5050565b60006101e86107e1565b7f360894a13ba1a3210667c828492db98dca3e2076cc3735a920a3ca505d382bbc60001b905090565b60008060000154905081565b600160009054906101000a900473ffffffffffffffffffffffffffffffffffffffff1681565b6040518060400160405280600581526020017f352e302e3000000000000000000000000000000000000000000000000000000081525081565b600073__$69fad24a0434cdadf4afcd45c858c7bb14$__63427cd64c90916040518263ffffffff1660e01b81526004016102b69190610f6d565b60006040518083038186803b1580156102ce57600080fd5b505af41580156102e2573d6000803e3d6000fd5b50505050565b60006102f2610868565b905060008160000160089054906101000a900460ff1615905060008260000160009054906101000a900467ffffffffffffffff1690506000808267ffffffffffffffff161480156103405750825b9050600060018367ffffffffffffffff16148015610375575060003073ffffffffffffffffffffffffffffffffffffffff163b145b905081158015610383575080155b156103ba576040517ff92ee8a900000000000000000000000000000000000000000000000000000000815260040160405180910390fd5b60018560000160006101000a81548167ffffffffffffffff021916908367ffffffffffffffff160217905550831561040a5760018560000160086101000a81548160ff0219169083151502179055505b600073__$69fad24a0434cdadf4afcd45c858c7bb14$__639215a1e19091886040518363ffffffff1660e01b8152600401610446929190610f97565b60006040518083038186803b15801561045e57600080fd5b505af4158015610472573d6000803e3d6000fd5b5050505083156104d25760008560000160086101000a81548160ff0219169083151502179055507fc7f505b2f371ae2175ee4913f4499e1f2633a7b5936321eed1cdaeb6115181d260016040516104c99190611019565b60405180910390a15b505050505050565b7f000000000000000000000000000000000000000000000000000000000000000073ffffffffffffffffffffffffffffffffffffffff163073ffffffffffffffffffffffffffffffffffffffff16148061058757507f000000000000000000000000000000000000000000000000000000000000000073ffffffffffffffffffffffffffffffffffffffff1661056e610890565b73ffffffffffffffffffffffffffffffffffffffff1614155b156105be576040517fe07c8dba00000000000000000000000000000000000000000000000000000000815260040160405180910390fd5b565b600160009054906101000a900473ffffffffffffffffffffffffffffffffffffffff1673ffffffffffffffffffffffffffffffffffffffff163373ffffffffffffffffffffffffffffffffffffffff1614610650576040517f08c379a000000000000000000000000000000000000000000000000000000000815260040161064790611080565b60405180910390fd5b600073ffffffffffffffffffffffffffffffffffffffff168173ffffffffffffffffffffffffffffffffffffffff16036106bf576040517f08c379a00000000000000000000000000000000000000000000000000000000081526004016106b6906110ec565b60405180910390fd5b50565b8173ffffffffffffffffffffffffffffffffffffffff166352d1902d6040518163ffffffff1660e01b8152600401602060405180830381865afa92505050801561072a57506040513d601f19601f820116820180604052508101906107279190611138565b60015b61076b57816040517f4c9c8ce30000000000000000000000000000000000000000000000000000000081526004016107629190610e51565b60405180910390fd5b7f360894a13ba1a3210667c828492db98dca3e2076cc3735a920a3ca505d382bbc60001b81146107d257806040517faa1d49a40000000000000000000000000000000000000000000000000000000081526004016107c99190610e27565b60405180910390fd5b6107dc83836108e7565b505050565b7f000000000000000000000000000000000000000000000000000000000000000073ffffffffffffffffffffffffffffffffffffffff163073ffffffffffffffffffffffffffffffffffffffff1614610866576040517fe07c8dba00000000000000000000000000000000000000000000000000000000815260040160405180910390fd5b565b60007ff0c57e16840df040f15088dc2f81fe391c3923bec73e23a9662efc9c229c6a00905090565b60006108be7f360894a13ba1a3210667c828492db98dca3e2076cc3735a920a3ca505d382bbc60001b61095a565b60000160009054906101000a900473ffffffffffffffffffffffffffffffffffffffff16905090565b6108f082610964565b8173ffffffffffffffffffffffffffffffffffffffff167fbc7cd75a20ee27fd9adebab32041f755214dbc6bffa90cc0225b39da2e5c2d3b60405160405180910390a260008151111561094d576109478282610a31565b50610956565b610955610ab5565b5b5050565b6000819050919050565b60008173ffffffffffffffffffffffffffffffffffffffff163b036109c057806040517f4c9c8ce30000000000000000000000000000000000000000000000000000000081526004016109b79190610e51565b60405180910390fd5b806109ed7f360894a13ba1a3210667c828492db98dca3e2076cc3735a920a3ca505d382bbc60001b61095a565b60000160006101000a81548173ffffffffffffffffffffffffffffffffffffffff021916908373ffffffffffffffffffffffffffffffffffffffff16021790555050565b60606000808473ffffffffffffffffffffffffffffffffffffffff1684604051610a5b91906111ac565b600060405180830381855af49150503d8060008114610a96576040519150601f19603f3d011682016040523d82523d6000602084013e610a9b565b606091505b5091509150610aab858383610af2565b9250505092915050565b6000341115610af0576040517fb398979f00000000000000000000000000000000000000000000000000000000815260040160405180910390fd5b565b606082610b0757610b0282610b81565b610b79565b60008251148015610b2f575060008473ffffffffffffffffffffffffffffffffffffffff163b145b15610b7157836040517f9996b315000000000000000000000000000000000000000000000000000000008152600401610b689190610e51565b60405180910390fd5b819050610b7a565b5b9392505050565b600081511115610b945780518082602001fd5b6040517f1425ea4200000000000000000000000000000000000000000000000000000000815260040160405180910390fd5b6000819050919050565b610bd981610bc6565b82525050565b6000602082019050610bf46000830184610bd0565b92915050565b6000604051905090565b600080fd5b600080fd5b600073ffffffffffffffffffffffffffffffffffffffff82169050919050565b6000610c3982610c0e565b9050919050565b610c4981610c2e565b8114610c5457600080fd5b50565b600081359050610c6681610c40565b92915050565b600080fd5b600080fd5b6000601f19601f8301169050919050565b7f4e487b7100000000000000000000000000000000000000000000000000000000600052604160045260246000fd5b610cbf82610c76565b810181811067ffffffffffffffff82111715610cde57610cdd610c87565b5b80604052505050565b6000610cf1610bfa565b9050610cfd8282610cb6565b919050565b600067ffffffffffffffff821115610d1d57610d1c610c87565b5b610d2682610c76565b9050602081019050919050565b82818337600083830152505050565b6000610d55610d5084610d02565b610ce7565b905082815260208101848484011115610d7157610d70610c71565b5b610d7c848285610d33565b509392505050565b600082601f830112610d9957610d98610c6c565b5b8135610da9848260208601610d42565b91505092915050565b60008060408385031215610dc957610dc8610c04565b5b6000610dd785828601610c57565b925050602083013567ffffffffffffffff811115610df857610df7610c09565b5b610e0485828601610d84565b9150509250929050565b6000819050919050565b610e2181610e0e565b82525050565b6000602082019050610e3c6000830184610e18565b92915050565b610e4b81610c2e565b82525050565b6000602082019050610e666000830184610e42565b92915050565b600081519050919050565b600082825260208201905092915050565b60005b83811015610ea6578082015181840152602081019050610e8b565b60008484015250505050565b6000610ebd82610e6c565b610ec78185610e77565b9350610ed7818560208601610e88565b610ee081610c76565b840191505092915050565b60006020820190508181036000830152610f058184610eb2565b905092915050565b610f1681610bc6565b8114610f2157600080fd5b50565b600081359050610f3381610f0d565b92915050565b600060208284031215610f4f57610f4e610c04565b5b6000610f5d84828501610f24565b91505092915050565b8082525050565b6000602082019050610f826000830184610f66565b92915050565b610f9181610bc6565b82525050565b6000604082019050610fac6000830185610f66565b610fb96020830184610f88565b9392505050565b6000819050919050565b600067ffffffffffffffff82169050919050565b6000819050919050565b6000611003610ffe610ff984610fc0565b610fde565b610fca565b9050919050565b61101381610fe8565b82525050565b600060208201905061102e600083018461100a565b92915050565b7f556e617574686f72697a65640000000000000000000000000000000000000000600082015250565b600061106a600c83610e77565b915061107582611034565b602082019050919050565b600060208201905081810360008301526110998161105d565b9050919050565b7f4e657720696d706c656d656e746174696f6e2069732072657175697265640000600082015250565b60006110d6601e83610e77565b91506110e1826110a0565b602082019050919050565b60006020820190508181036000830152611105816110c9565b9050919050565b61111581610e0e565b811461112057600080fd5b50565b6000815190506111328161110c565b92915050565b60006020828403121561114e5761114d610c04565b5b600061115c84828501611123565b91505092915050565b600081519050919050565b600081905092915050565b600061118682611165565b6111908185611170565b93506111a0818560208601610e88565b80840191505092915050565b60006111b8828461117b565b91508190509291505056fea2646970667358221220db2ca111d324460a9f0c59164b49ef02c8bbc0bdb68a7e7ac927d8bde8101e0364736f6c63430008140033",
  "linkReferences": {
    "contracts/Count.sol": {
      "Count": [
        {
          "length": 20,
          "start": 1145
        },
        {
          "length": 20,
          "start": 1543
        }
      ]
    }
  },
  "deployedLinkReferences": {
    "contracts/Count.sol": {
      "Count": [
        {
          "length": 20,
          "start": 640
        },
        {
          "length": 20,
          "start": 1038
        }
      ]
    }
  }
}