{
  "_format": "hh-sol-artifact-1",
  "contractName": "Datatypes",
  "sourceName": "contracts/Datatypes.sol",
  "abi": [
    {
      "inputs": [],
      "stateMutability": "nonpayable",
      "type": "constructor"
    },
    {
      "inputs": [
        {
          "internalType": "address",
          "name": "a",
          "type": "address"
        }
      ],
      "name": "echoAddress",
      "outputs": [
        {
          "internalType": "address",
          "name": "",
          "type": "address"
        }
      ],
      "stateMutability": "pure",
      "type": "function"
    }
  ],
  "bytecode": "0x608060405234801561001057600080fd5b5061027b806100206000396000f3fe608060405234801561001057600080fd5b506004361061002b5760003560e01c806382ac4d4f14610030575b600080fd5b61004a600480360381019061004591906101bf565b610060565b60405161005791906101fb565b60405180910390f35b600061006b82610073565b819050919050565b6101098160405160240161008791906101fb565b6040516020818303038152906040527f2c2ecbc2000000000000000000000000000000000000000000000000000000007bffffffffffffffffffffffffffffffffffffffffffffffffffffffff19166020820180517bffffffffffffffffffffffffffffffffffffffffffffffffffffffff838183161783525050505061010c565b50565b6101238161011b610126610147565b63ffffffff16565b50565b60006a636f6e736f6c652e6c6f679050600080835160208501845afa505050565b610152819050919050565b61015a610216565b565b600080fd5b600073ffffffffffffffffffffffffffffffffffffffff82169050919050565b600061018c82610161565b9050919050565b61019c81610181565b81146101a757600080fd5b50565b6000813590506101b981610193565b92915050565b6000602082840312156101d5576101d461015c565b5b60006101e3848285016101aa565b91505092915050565b6101f581610181565b82525050565b600060208201905061021060008301846101ec565b92915050565b7f4e487b7100000000000000000000000000000000000000000000000000000000600052605160045260246000fdfea2646970667358221220325f6b0d9d8151ae9abe74a02be288feb475ce5ccfc44b92c6df42f3e819bfca64736f6c63430008140033",
  "linkReferences": {},
  "deployedLinkReferences": {}
}