{
  "_format": "hh-sol-artifact-1",
  "contractName": "TestCurrencyUUPS",
  "sourceName": "contracts/mocks/TestCurrencyUUPS.sol",
  "abi": [
    {
      "anonymous": false,
      "inputs": [
        {
          "indexed": true,
          "internalType": "address",
          "name": "owner",
          "type": "address"
        },
        {
          "indexed": true,
          "internalType": "address",
          "name": "spender",
          "type": "address"
        },
        {
          "indexed": false,
          "internalType": "uint256",
          "name": "value",
          "type": "uint256"
        }
      ],
      "name": "Approval",
      "type": "event"
    },
    {
      "anonymous": false,
      "inputs": [
        {
          "indexed": true,
          "internalType": "address",
          "name": "from",
          "type": "address"
        },
        {
          "indexed": true,
          "internalType": "address",
          "name": "to",
          "type": "address"
        },
        {
          "indexed": false,
          "internalType": "uint256",
          "name": "value",
          "type": "uint256"
        }
      ],
      "name": "Transfer",
      "type": "event"
    },
    {
      "inputs": [
        {
          "internalType": "address",
          "name": "owner",
          "type": "address"
        },
        {
          "internalType": "address",
          "name": "spender",
          "type": "address"
        }
      ],
      "name": "allowance",
      "outputs": [
        {
          "internalType": "uint256",
          "name": "",
          "type": "uint256"
        }
      ],
      "stateMutability": "view",
      "type": "function"
    },
    {
      "inputs": [
        {
          "internalType": "address",
          "name": "spender",
          "type": "address"
        },
        {
          "internalType": "uint256",
          "name": "amount",
          "type": "uint256"
        }
      ],
      "name": "approve",
      "outputs": [
        {
          "internalType": "bool",
          "name": "",
          "type": "bool"
        }
      ],
      "stateMutability": "nonpayable",
      "type": "function"
    },
    {
      "inputs": [
        {
          "internalType": "address",
          "name": "account",
          "type": "address"
        }
      ],
      "name": "balanceOf",
      "outputs": [
        {
          "internalType": "uint256",
          "name": "",
          "type": "uint256"
        }
      ],
      "stateMutability": "view",
      "type": "function"
    },
    {
      "inputs": [
        {
          "internalType": "address",
          "name": "recipient",
          "type": "address"
        },
        {
          "internalType": "uint256",
          "name": "amount",
          "type": "uint256"
        }
      ],
      "name": "burn",
      "outputs": [],
      "stateMutability": "nonpayable",
      "type": "function"
    },
    {
      "inputs": [],
      "name": "decimals",
      "outputs": [
        {
          "internalType": "uint8",
          "name": "",
          "type": "uint8"
        }
      ],
      "stateMutability": "view",
      "type": "function"
    },
    {
      "inputs": [
        {
          "internalType": "address",
          "name": "spender",
          "type": "address"
        },
        {
          "internalType": "uint256",
          "name": "subtractedValue",
          "type": "uint256"
        }
      ],
      "name": "decreaseAllowance",
      "outputs": [
        {
          "internalType": "bool",
          "name": "",
          "type": "bool"
        }
      ],
      "stateMutability": "nonpayable",
      "type": "function"
    },
    {
      "inputs": [
        {
          "internalType": "address",
          "name": "spender",
          "type": "address"
        },
        {
          "internalType": "uint256",
          "name": "addedValue",
          "type": "uint256"
        }
      ],
      "name": "increaseAllowance",
      "outputs": [
        {
          "internalType": "bool",
          "name": "",
          "type": "bool"
        }
      ],
      "stateMutability": "nonpayable",
      "type": "function"
    },
    {
      "inputs": [
        {
          "internalType": "string",
          "name": "name_",
          "type": "string"
        },
        {
          "internalType": "string",
          "name": "symbol_",
          "type": "string"
        },
        {
          "internalType": "uint256",
          "name": "initialSupply",
          "type": "uint256"
        }
      ],
      "name": "initialize",
      "outputs": [],
      "stateMutability": "nonpayable",
      "type": "function"
    },
    {
      "inputs": [
        {
          "internalType": "address",
          "name": "recipient",
          "type": "address"
        },
        {
          "internalType": "uint256",
          "name": "amount",
          "type": "uint256"
        }
      ],
      "name": "mint",
      "outputs": [],
      "stateMutability": "nonpayable",
      "type": "function"
    },
    {
      "inputs": [],
      "name": "name",
      "outputs": [
        {
          "internalType": "string",
          "name": "",
          "type": "string"
        }
      ],
      "stateMutability": "view",
      "type": "function"
    },
    {
      "inputs": [],
      "name": "symbol",
      "outputs": [
        {
          "internalType": "string",
          "name": "",
          "type": "string"
        }
      ],
      "stateMutability": "view",
      "type": "function"
    },
    {
      "inputs": [],
      "name": "totalSupply",
      "outputs": [
        {
          "internalType": "uint256",
          "name": "",
          "type": "uint256"
        }
      ],
      "stateMutability": "view",
      "type": "function"
    },
    {
      "inputs": [
        {
          "internalType": "address",
          "name": "recipient",
          "type": "address"
        },
        {
          "internalType": "uint256",
          "name": "amount",
          "type": "uint256"
        }
      ],
      "name": "transfer",
      "outputs": [
        {
          "internalType": "bool",
          "name": "",
          "type": "bool"
        }
      ],
      "stateMutability": "nonpayable",
      "type": "function"
    },
    {
      "inputs": [
        {
          "internalType": "address",
          "name": "sender",
          "type": "address"
        },
        {
          "internalType": "address",
          "name": "recipient",
          "type": "address"
        },
        {
          "internalType": "uint256",
          "name": "amount",
          "type": "uint256"
        }
      ],
      "name": "transferFrom",
      "outputs": [
        {
          "internalType": "bool",
          "name": "",
          "type": "bool"
        }
      ],
      "stateMutability": "nonpayable",
      "type": "function"
    }
  ],
  "bytecode": "0x608060405234801561001057600080fd5b50610fb9806100206000396000f3fe608060405234801561001057600080fd5b50600436106100ea5760003560e01c806370a082311161008c578063a457c2d711610066578063a457c2d7146101d0578063a9059cbb146101e3578063b119490e146101f6578063dd62ed3e1461020957600080fd5b806370a082311461018c57806395d89b41146101b55780639dc29fac146101bd57600080fd5b806323b872dd116100c857806323b872dd14610142578063313ce56714610155578063395093511461016457806340c10f191461017757600080fd5b806306fdde03146100ef578063095ea7b31461010d57806318160ddd14610130575b600080fd5b6100f7610242565b6040516101049190610e4a565b60405180910390f35b61012061011b366004610db3565b6102d4565b6040519015158152602001610104565b6035545b604051908152602001610104565b610120610150366004610d77565b6102ea565b60405160128152602001610104565b610120610172366004610db3565b610399565b61018a610185366004610db3565b6103d5565b005b61013461019a366004610d22565b6001600160a01b031660009081526033602052604090205490565b6100f76103e3565b61018a6101cb366004610db3565b6103f2565b6101206101de366004610db3565b6103fc565b6101206101f1366004610db3565b610495565b61018a610204366004610ddd565b6104a2565b610134610217366004610d44565b6001600160a01b03918216600090815260346020908152604080832093909416825291909152205490565b60606036805461025190610f1c565b80601f016020809104026020016040519081016040528092919081815260200182805461027d90610f1c565b80156102ca5780601f1061029f576101008083540402835291602001916102ca565b820191906000526020600020905b8154815290600101906020018083116102ad57829003601f168201915b5050505050905090565b60006102e1338484610543565b50600192915050565b60006102f7848484610668565b6001600160a01b0384166000908152603460209081526040808320338452909152902054828110156103815760405162461bcd60e51b815260206004820152602860248201527f45524332303a207472616e7366657220616d6f756e74206578636565647320616044820152676c6c6f77616e636560c01b60648201526084015b60405180910390fd5b61038e8533858403610543565b506001949350505050565b3360008181526034602090815260408083206001600160a01b038716845290915281205490916102e19185906103d0908690610eed565b610543565b6103df8282610836565b5050565b60606037805461025190610f1c565b6103df8282610915565b3360009081526034602090815260408083206001600160a01b03861684529091528120548281101561047e5760405162461bcd60e51b815260206004820152602560248201527f45524332303a2064656372656173656420616c6c6f77616e63652062656c6f77604482015264207a65726f60d81b6064820152608401610378565b61048b3385858403610543565b5060019392505050565b60006102e1338484610668565b600054610100900460ff16806104bb575060005460ff16155b6104d75760405162461bcd60e51b815260040161037890610e9f565b600054610100900460ff161580156104f9576000805461ffff19166101011790555b606580546001600160a01b031916331790556105158484610a60565b60655461052b906001600160a01b031683610836565b801561053d576000805461ff00191690555b50505050565b6001600160a01b0383166105a55760405162461bcd60e51b8152602060048201526024808201527f45524332303a20617070726f76652066726f6d20746865207a65726f206164646044820152637265737360e01b6064820152608401610378565b6001600160a01b0382166106065760405162461bcd60e51b815260206004820152602260248201527f45524332303a20617070726f766520746f20746865207a65726f206164647265604482015261737360f01b6064820152608401610378565b6001600160a01b0383811660008181526034602090815260408083209487168084529482529182902085905590518481527f8c5be1e5ebec7d5bd14f71427d1e84f3dd0314c0f7b2291e5b200ac8c7c3b92591015b60405180910390a3505050565b6001600160a01b0383166106cc5760405162461bcd60e51b815260206004820152602560248201527f45524332303a207472616e736665722066726f6d20746865207a65726f206164604482015264647265737360d81b6064820152608401610378565b6001600160a01b03821661072e5760405162461bcd60e51b815260206004820152602360248201527f45524332303a207472616e7366657220746f20746865207a65726f206164647260448201526265737360e81b6064820152608401610378565b6001600160a01b038316600090815260336020526040902054818110156107a65760405162461bcd60e51b815260206004820152602660248201527f45524332303a207472616e7366657220616d6f756e7420657863656564732062604482015265616c616e636560d01b6064820152608401610378565b6001600160a01b038085166000908152603360205260408082208585039055918516815290812080548492906107dd908490610eed565b92505081905550826001600160a01b0316846001600160a01b03167fddf252ad1be2c89b69c2b068fc378daa952ba7f163c4a11628f55a4df523b3ef8460405161082991815260200190565b60405180910390a361053d565b6001600160a01b03821661088c5760405162461bcd60e51b815260206004820152601f60248201527f45524332303a206d696e7420746f20746865207a65726f2061646472657373006044820152606401610378565b806035600082825461089e9190610eed565b90915550506001600160a01b038216600090815260336020526040812080548392906108cb908490610eed565b90915550506040518181526001600160a01b038316906000907fddf252ad1be2c89b69c2b068fc378daa952ba7f163c4a11628f55a4df523b3ef9060200160405180910390a35050565b6001600160a01b0382166109755760405162461bcd60e51b815260206004820152602160248201527f45524332303a206275726e2066726f6d20746865207a65726f206164647265736044820152607360f81b6064820152608401610378565b6001600160a01b038216600090815260336020526040902054818110156109e95760405162461bcd60e51b815260206004820152602260248201527f45524332303a206275726e20616d6f756e7420657863656564732062616c616e604482015261636560f01b6064820152608401610378565b6001600160a01b0383166000908152603360205260408120838303905560358054849290610a18908490610f05565b90915550506040518281526000906001600160a01b038516907fddf252ad1be2c89b69c2b068fc378daa952ba7f163c4a11628f55a4df523b3ef9060200161065b565b505050565b600054610100900460ff1680610a79575060005460ff16155b610a955760405162461bcd60e51b815260040161037890610e9f565b600054610100900460ff16158015610ab7576000805461ffff19166101011790555b610abf610adf565b610ac98383610b4b565b8015610a5b576000805461ff0019169055505050565b600054610100900460ff1680610af8575060005460ff16155b610b145760405162461bcd60e51b815260040161037890610e9f565b600054610100900460ff16158015610b36576000805461ffff19166101011790555b8015610b48576000805461ff00191690555b50565b600054610100900460ff1680610b64575060005460ff16155b610b805760405162461bcd60e51b815260040161037890610e9f565b600054610100900460ff16158015610ba2576000805461ffff19166101011790555b8251610bb5906036906020860190610be0565b508151610bc9906037906020850190610be0565b508015610a5b576000805461ff0019169055505050565b828054610bec90610f1c565b90600052602060002090601f016020900481019282610c0e5760008555610c54565b82601f10610c2757805160ff1916838001178555610c54565b82800160010185558215610c54579182015b82811115610c54578251825591602001919060010190610c39565b50610c60929150610c64565b5090565b5b80821115610c605760008155600101610c65565b80356001600160a01b0381168114610c9057600080fd5b919050565b600082601f830112610ca657600080fd5b813567ffffffffffffffff80821115610cc157610cc1610f6d565b604051601f8301601f19908116603f01168101908282118183101715610ce957610ce9610f6d565b81604052838152866020858801011115610d0257600080fd5b836020870160208301376000602085830101528094505050505092915050565b600060208284031215610d3457600080fd5b610d3d82610c79565b9392505050565b60008060408385031215610d5757600080fd5b610d6083610c79565b9150610d6e60208401610c79565b90509250929050565b600080600060608486031215610d8c57600080fd5b610d9584610c79565b9250610da360208501610c79565b9150604084013590509250925092565b60008060408385031215610dc657600080fd5b610dcf83610c79565b946020939093013593505050565b600080600060608486031215610df257600080fd5b833567ffffffffffffffff80821115610e0a57600080fd5b610e1687838801610c95565b94506020860135915080821115610e2c57600080fd5b50610e3986828701610c95565b925050604084013590509250925092565b600060208083528351808285015260005b81811015610e7757858101830151858201604001528201610e5b565b81811115610e89576000604083870101525b50601f01601f1916929092016040019392505050565b6020808252602e908201527f496e697469616c697a61626c653a20636f6e747261637420697320616c72656160408201526d191e481a5b9a5d1a585b1a5e995960921b606082015260800190565b60008219821115610f0057610f00610f57565b500190565b600082821015610f1757610f17610f57565b500390565b600181811c90821680610f3057607f821691505b60208210811415610f5157634e487b7160e01b600052602260045260246000fd5b50919050565b634e487b7160e01b600052601160045260246000fd5b634e487b7160e01b600052604160045260246000fdfea2646970667358221220e98715bc1d5b266db355617ec6bd340f476c9fe5f2ecb9be95c41eb42309920f64736f6c63430008060033",
  "linkReferences": {},
  "deployedLinkReferences": {}
}