{
  "_format": "hh-sol-artifact-1",
  "contractName": "TestNFT",
  "sourceName": "contracts/mocks/TestNFT.sol",
  "abi": [
    {
      "inputs": [
        {
          "internalType": "string",
          "name": "name_",
          "type": "string"
        },
        {
          "internalType": "string",
          "name": "symbol_",
          "type": "string"
        }
      ],
      "stateMutability": "nonpayable",
      "type": "constructor"
    },
    {
      "anonymous": false,
      "inputs": [
        {
          "indexed": true,
          "internalType": "address",
          "name": "owner",
          "type": "address"
        },
        {
          "indexed": true,
          "internalType": "address",
          "name": "approved",
          "type": "address"
        },
        {
          "indexed": true,
          "internalType": "uint256",
          "name": "tokenId",
          "type": "uint256"
        }
      ],
      "name": "Approval",
      "type": "event"
    },
    {
      "anonymous": false,
      "inputs": [
        {
          "indexed": true,
          "internalType": "address",
          "name": "owner",
          "type": "address"
        },
        {
          "indexed": true,
          "internalType": "address",
          "name": "operator",
          "type": "address"
        },
        {
          "indexed": false,
          "internalType": "bool",
          "name": "approved",
          "type": "bool"
        }
      ],
      "name": "ApprovalForAll",
      "type": "event"
    },
    {
      "anonymous": false,
      "inputs": [
        {
          "indexed": true,
          "internalType": "address",
          "name": "from",
          "type": "address"
        },
        {
          "indexed": true,
          "internalType": "address",
          "name": "to",
          "type": "address"
        },
        {
          "indexed": true,
          "internalType": "uint256",
          "name": "tokenId",
          "type": "uint256"
        }
      ],
      "name": "Transfer",
      "type": "event"
    },
    {
      "inputs": [
        {
          "internalType": "address",
          "name": "to",
          "type": "address"
        },
        {
          "internalType": "uint256",
          "name": "tokenId",
          "type": "uint256"
        }
      ],
      "name": "approve",
      "outputs": [],
      "stateMutability": "nonpayable",
      "type": "function"
    },
    {
      "inputs": [
        {
          "internalType": "address",
          "name": "owner",
          "type": "address"
        }
      ],
      "name": "balanceOf",
      "outputs": [
        {
          "internalType": "uint256",
          "name": "",
          "type": "uint256"
        }
      ],
      "stateMutability": "view",
      "type": "function"
    },
    {
      "inputs": [
        {
          "internalType": "uint256",
          "name": "tokenId",
          "type": "uint256"
        }
      ],
      "name": "burn",
      "outputs": [],
      "stateMutability": "nonpayable",
      "type": "function"
    },
    {
      "inputs": [
        {
          "internalType": "uint256",
          "name": "tokenId",
          "type": "uint256"
        }
      ],
      "name": "getApproved",
      "outputs": [
        {
          "internalType": "address",
          "name": "",
          "type": "address"
        }
      ],
      "stateMutability": "view",
      "type": "function"
    },
    {
      "inputs": [
        {
          "internalType": "address",
          "name": "owner",
          "type": "address"
        },
        {
          "internalType": "address",
          "name": "operator",
          "type": "address"
        }
      ],
      "name": "isApprovedForAll",
      "outputs": [
        {
          "internalType": "bool",
          "name": "",
          "type": "bool"
        }
      ],
      "stateMutability": "view",
      "type": "function"
    },
    {
      "inputs": [
        {
          "internalType": "address",
          "name": "recipient",
          "type": "address"
        },
        {
          "internalType": "uint256",
          "name": "tokenId",
          "type": "uint256"
        }
      ],
      "name": "mint",
      "outputs": [],
      "stateMutability": "nonpayable",
      "type": "function"
    },
    {
      "inputs": [],
      "name": "name",
      "outputs": [
        {
          "internalType": "string",
          "name": "",
          "type": "string"
        }
      ],
      "stateMutability": "view",
      "type": "function"
    },
    {
      "inputs": [
        {
          "internalType": "uint256",
          "name": "tokenId",
          "type": "uint256"
        }
      ],
      "name": "ownerOf",
      "outputs": [
        {
          "internalType": "address",
          "name": "",
          "type": "address"
        }
      ],
      "stateMutability": "view",
      "type": "function"
    },
    {
      "inputs": [
        {
          "internalType": "address",
          "name": "from",
          "type": "address"
        },
        {
          "internalType": "address",
          "name": "to",
          "type": "address"
        },
        {
          "internalType": "uint256",
          "name": "tokenId",
          "type": "uint256"
        }
      ],
      "name": "safeTransferFrom",
      "outputs": [],
      "stateMutability": "nonpayable",
      "type": "function"
    },
    {
      "inputs": [
        {
          "internalType": "address",
          "name": "from",
          "type": "address"
        },
        {
          "internalType": "address",
          "name": "to",
          "type": "address"
        },
        {
          "internalType": "uint256",
          "name": "tokenId",
          "type": "uint256"
        },
        {
          "internalType": "bytes",
          "name": "_data",
          "type": "bytes"
        }
      ],
      "name": "safeTransferFrom",
      "outputs": [],
      "stateMutability": "nonpayable",
      "type": "function"
    },
    {
      "inputs": [
        {
          "internalType": "address",
          "name": "operator",
          "type": "address"
        },
        {
          "internalType": "bool",
          "name": "approved",
          "type": "bool"
        }
      ],
      "name": "setApprovalForAll",
      "outputs": [],
      "stateMutability": "nonpayable",
      "type": "function"
    },
    {
      "inputs": [
        {
          "internalType": "bytes4",
          "name": "interfaceId",
          "type": "bytes4"
        }
      ],
      "name": "supportsInterface",
      "outputs": [
        {
          "internalType": "bool",
          "name": "",
          "type": "bool"
        }
      ],
      "stateMutability": "view",
      "type": "function"
    },
    {
      "inputs": [],
      "name": "symbol",
      "outputs": [
        {
          "internalType": "string",
          "name": "",
          "type": "string"
        }
      ],
      "stateMutability": "view",
      "type": "function"
    },
    {
      "inputs": [
        {
          "internalType": "uint256",
          "name": "tokenId",
          "type": "uint256"
        }
      ],
      "name": "tokenURI",
      "outputs": [
        {
          "internalType": "string",
          "name": "",
          "type": "string"
        }
      ],
      "stateMutability": "view",
      "type": "function"
    },
    {
      "inputs": [
        {
          "internalType": "address",
          "name": "from",
          "type": "address"
        },
        {
          "internalType": "address",
          "name": "to",
          "type": "address"
        },
        {
          "internalType": "uint256",
          "name": "tokenId",
          "type": "uint256"
        }
      ],
      "name": "transferFrom",
      "outputs": [],
      "stateMutability": "nonpayable",
      "type": "function"
    }
  ],
  "bytecode": "0x60806040523480156200001157600080fd5b506040516200179f3803806200179f8339810160408190526200003491620001de565b8151829082906200004d90600090602085019062000081565b5080516200006390600190602084019062000081565b5050600680546001600160a01b03191633179055506200029b915050565b8280546200008f9062000248565b90600052602060002090601f016020900481019282620000b35760008555620000fe565b82601f10620000ce57805160ff1916838001178555620000fe565b82800160010185558215620000fe579182015b82811115620000fe578251825591602001919060010190620000e1565b506200010c92915062000110565b5090565b5b808211156200010c576000815560010162000111565b600082601f8301126200013957600080fd5b81516001600160401b038082111562000156576200015662000285565b604051601f8301601f19908116603f0116810190828211818310171562000181576200018162000285565b816040528381526020925086838588010111156200019e57600080fd5b600091505b83821015620001c25785820183015181830184015290820190620001a3565b83821115620001d45760008385830101525b9695505050505050565b60008060408385031215620001f257600080fd5b82516001600160401b03808211156200020a57600080fd5b620002188683870162000127565b935060208501519150808211156200022f57600080fd5b506200023e8582860162000127565b9150509250929050565b600181811c908216806200025d57607f821691505b602082108114156200027f57634e487b7160e01b600052602260045260246000fd5b50919050565b634e487b7160e01b600052604160045260246000fd5b6114f480620002ab6000396000f3fe608060405234801561001057600080fd5b50600436106100f55760003560e01c806342966c6811610097578063a22cb46511610066578063a22cb465146101ff578063b88d4fde14610212578063c87b56dd14610225578063e985e9c51461023857600080fd5b806342966c68146101b05780636352211e146101c357806370a08231146101d657806395d89b41146101f757600080fd5b8063095ea7b3116100d3578063095ea7b31461016257806323b872dd1461017757806340c10f191461018a57806342842e0e1461019d57600080fd5b806301ffc9a7146100fa57806306fdde0314610122578063081812fc14610137575b600080fd5b61010d6101083660046111d6565b610274565b60405190151581526020015b60405180910390f35b61012a6102c6565b60405161011991906112c1565b61014a610145366004611210565b610358565b6040516001600160a01b039091168152602001610119565b6101756101703660046111ac565b6103f2565b005b610175610185366004611058565b610508565b6101756101983660046111ac565b610539565b6101756101ab366004611058565b610547565b6101756101be366004611210565b610562565b61014a6101d1366004611210565b6105dc565b6101e96101e436600461100a565b610653565b604051908152602001610119565b61012a6106da565b61017561020d366004611170565b6106e9565b610175610220366004611094565b6107ae565b61012a610233366004611210565b6107e6565b61010d610246366004611025565b6001600160a01b03918216600090815260056020908152604080832093909416825291909152205460ff1690565b60006001600160e01b031982166380ac58cd60e01b14806102a557506001600160e01b03198216635b5e139f60e01b145b806102c057506301ffc9a760e01b6001600160e01b03198316145b92915050565b6060600080546102d5906113e6565b80601f0160208091040260200160405190810160405280929190818152602001828054610301906113e6565b801561034e5780601f106103235761010080835404028352916020019161034e565b820191906000526020600020905b81548152906001019060200180831161033157829003601f168201915b5050505050905090565b6000818152600260205260408120546001600160a01b03166103d65760405162461bcd60e51b815260206004820152602c60248201527f4552433732313a20617070726f76656420717565727920666f72206e6f6e657860448201526b34b9ba32b73a103a37b5b2b760a11b60648201526084015b60405180910390fd5b506000908152600460205260409020546001600160a01b031690565b60006103fd826105dc565b9050806001600160a01b0316836001600160a01b0316141561046b5760405162461bcd60e51b815260206004820152602160248201527f4552433732313a20617070726f76616c20746f2063757272656e74206f776e656044820152603960f91b60648201526084016103cd565b336001600160a01b038216148061048757506104878133610246565b6104f95760405162461bcd60e51b815260206004820152603860248201527f4552433732313a20617070726f76652063616c6c6572206973206e6f74206f7760448201527f6e6572206e6f7220617070726f76656420666f7220616c6c000000000000000060648201526084016103cd565b61050383836108ce565b505050565b610512338261093c565b61052e5760405162461bcd60e51b81526004016103cd90611326565b610503838383610a33565b6105438282610bd3565b5050565b610503838383604051806020016040528060008152506107ae565b3361056c826105dc565b6001600160a01b0316146105d05760405162461bcd60e51b815260206004820152602560248201527f4552433732313a206275726e206f6620746f6b656e2074686174206973206e6f6044820152643a1037bbb760d91b60648201526084016103cd565b6105d981610d15565b50565b6000818152600260205260408120546001600160a01b0316806102c05760405162461bcd60e51b815260206004820152602960248201527f4552433732313a206f776e657220717565727920666f72206e6f6e657869737460448201526832b73a103a37b5b2b760b91b60648201526084016103cd565b60006001600160a01b0382166106be5760405162461bcd60e51b815260206004820152602a60248201527f4552433732313a2062616c616e636520717565727920666f7220746865207a65604482015269726f206164647265737360b01b60648201526084016103cd565b506001600160a01b031660009081526003602052604090205490565b6060600180546102d5906113e6565b6001600160a01b0382163314156107425760405162461bcd60e51b815260206004820152601960248201527f4552433732313a20617070726f766520746f2063616c6c65720000000000000060448201526064016103cd565b3360008181526005602090815260408083206001600160a01b03871680855290835292819020805460ff191686151590811790915590519081529192917f17307eab39ab6107e8899845ad3d59bd9653f200f220920489ca2b5937696c31910160405180910390a35050565b6107b8338361093c565b6107d45760405162461bcd60e51b81526004016103cd90611326565b6107e084848484610db0565b50505050565b6000818152600260205260409020546060906001600160a01b03166108655760405162461bcd60e51b815260206004820152602f60248201527f4552433732314d657461646174613a2055524920717565727920666f72206e6f60448201526e3732bc34b9ba32b73a103a37b5b2b760891b60648201526084016103cd565b600061087c60408051602081019091526000815290565b9050600081511161089c57604051806020016040528060008152506108c7565b806108a684610de3565b6040516020016108b7929190611255565b6040516020818303038152906040525b9392505050565b600081815260046020526040902080546001600160a01b0319166001600160a01b0384169081179091558190610903826105dc565b6001600160a01b03167f8c5be1e5ebec7d5bd14f71427d1e84f3dd0314c0f7b2291e5b200ac8c7c3b92560405160405180910390a45050565b6000818152600260205260408120546001600160a01b03166109b55760405162461bcd60e51b815260206004820152602c60248201527f4552433732313a206f70657261746f7220717565727920666f72206e6f6e657860448201526b34b9ba32b73a103a37b5b2b760a11b60648201526084016103cd565b60006109c0836105dc565b9050806001600160a01b0316846001600160a01b031614806109fb5750836001600160a01b03166109f084610358565b6001600160a01b0316145b80610a2b57506001600160a01b0380821660009081526005602090815260408083209388168352929052205460ff165b949350505050565b826001600160a01b0316610a46826105dc565b6001600160a01b031614610aae5760405162461bcd60e51b815260206004820152602960248201527f4552433732313a207472616e73666572206f6620746f6b656e2074686174206960448201526839903737ba1037bbb760b91b60648201526084016103cd565b6001600160a01b038216610b105760405162461bcd60e51b8152602060048201526024808201527f4552433732313a207472616e7366657220746f20746865207a65726f206164646044820152637265737360e01b60648201526084016103cd565b610b1b6000826108ce565b6001600160a01b0383166000908152600360205260408120805460019290610b449084906113a3565b90915550506001600160a01b0382166000908152600360205260408120805460019290610b72908490611377565b909155505060008181526002602052604080822080546001600160a01b0319166001600160a01b0386811691821790925591518493918716917fddf252ad1be2c89b69c2b068fc378daa952ba7f163c4a11628f55a4df523b3ef91a4505050565b6001600160a01b038216610c295760405162461bcd60e51b815260206004820181905260248201527f4552433732313a206d696e7420746f20746865207a65726f206164647265737360448201526064016103cd565b6000818152600260205260409020546001600160a01b031615610c8e5760405162461bcd60e51b815260206004820152601c60248201527f4552433732313a20746f6b656e20616c7265616479206d696e7465640000000060448201526064016103cd565b6001600160a01b0382166000908152600360205260408120805460019290610cb7908490611377565b909155505060008181526002602052604080822080546001600160a01b0319166001600160a01b03861690811790915590518392907fddf252ad1be2c89b69c2b068fc378daa952ba7f163c4a11628f55a4df523b3ef908290a45050565b6000610d20826105dc565b9050610d2d6000836108ce565b6001600160a01b0381166000908152600360205260408120805460019290610d569084906113a3565b909155505060008281526002602052604080822080546001600160a01b0319169055518391906001600160a01b038416907fddf252ad1be2c89b69c2b068fc378daa952ba7f163c4a11628f55a4df523b3ef908390a45050565b610dbb848484610a33565b610dc784848484610ee1565b6107e05760405162461bcd60e51b81526004016103cd906112d4565b606081610e075750506040805180820190915260018152600360fc1b602082015290565b8160005b8115610e315780610e1b81611421565b9150610e2a9050600a8361138f565b9150610e0b565b60008167ffffffffffffffff811115610e4c57610e4c611492565b6040519080825280601f01601f191660200182016040528015610e76576020820181803683370190505b5090505b8415610a2b57610e8b6001836113a3565b9150610e98600a8661143c565b610ea3906030611377565b60f81b818381518110610eb857610eb861147c565b60200101906001600160f81b031916908160001a905350610eda600a8661138f565b9450610e7a565b60006001600160a01b0384163b15610fe357604051630a85bd0160e11b81526001600160a01b0385169063150b7a0290610f25903390899088908890600401611284565b602060405180830381600087803b158015610f3f57600080fd5b505af1925050508015610f6f575060408051601f3d908101601f19168201909252610f6c918101906111f3565b60015b610fc9573d808015610f9d576040519150601f19603f3d011682016040523d82523d6000602084013e610fa2565b606091505b508051610fc15760405162461bcd60e51b81526004016103cd906112d4565b805181602001fd5b6001600160e01b031916630a85bd0160e11b149050610a2b565b506001949350505050565b80356001600160a01b038116811461100557600080fd5b919050565b60006020828403121561101c57600080fd5b6108c782610fee565b6000806040838503121561103857600080fd5b61104183610fee565b915061104f60208401610fee565b90509250929050565b60008060006060848603121561106d57600080fd5b61107684610fee565b925061108460208501610fee565b9150604084013590509250925092565b600080600080608085870312156110aa57600080fd5b6110b385610fee565b93506110c160208601610fee565b925060408501359150606085013567ffffffffffffffff808211156110e557600080fd5b818701915087601f8301126110f957600080fd5b81358181111561110b5761110b611492565b604051601f8201601f19908116603f0116810190838211818310171561113357611133611492565b816040528281528a602084870101111561114c57600080fd5b82602086016020830137600060208483010152809550505050505092959194509250565b6000806040838503121561118357600080fd5b61118c83610fee565b9150602083013580151581146111a157600080fd5b809150509250929050565b600080604083850312156111bf57600080fd5b6111c883610fee565b946020939093013593505050565b6000602082840312156111e857600080fd5b81356108c7816114a8565b60006020828403121561120557600080fd5b81516108c7816114a8565b60006020828403121561122257600080fd5b5035919050565b600081518084526112418160208601602086016113ba565b601f01601f19169290920160200192915050565b600083516112678184602088016113ba565b83519083019061127b8183602088016113ba565b01949350505050565b6001600160a01b03858116825284166020820152604081018390526080606082018190526000906112b790830184611229565b9695505050505050565b6020815260006108c76020830184611229565b60208082526032908201527f4552433732313a207472616e7366657220746f206e6f6e20455243373231526560408201527131b2b4bb32b91034b6b83632b6b2b73a32b960711b606082015260800190565b60208082526031908201527f4552433732313a207472616e736665722063616c6c6572206973206e6f74206f6040820152701ddb995c881b9bdc88185c1c1c9bdd9959607a1b606082015260800190565b6000821982111561138a5761138a611450565b500190565b60008261139e5761139e611466565b500490565b6000828210156113b5576113b5611450565b500390565b60005b838110156113d55781810151838201526020016113bd565b838111156107e05750506000910152565b600181811c908216806113fa57607f821691505b6020821081141561141b57634e487b7160e01b600052602260045260246000fd5b50919050565b600060001982141561143557611435611450565b5060010190565b60008261144b5761144b611466565b500690565b634e487b7160e01b600052601160045260246000fd5b634e487b7160e01b600052601260045260246000fd5b634e487b7160e01b600052603260045260246000fd5b634e487b7160e01b600052604160045260246000fd5b6001600160e01b0319811681146105d957600080fdfea2646970667358221220795e01e3f7aad9abdf82d5b76e4961d26720cffd5f1c9db0c694c64a05ce958864736f6c63430008060033",
  "linkReferences": {},
  "deployedLinkReferences": {}
}