{
  "_format": "hh-sol-artifact-1",
  "contractName": "CounterWithLibrary",
  "sourceName": "contracts/CounterWithLibrary.sol",
  "abi": [
    {
      "inputs": [
        {
          "internalType": "uint256",
          "name": "initialValue",
          "type": "uint256"
        }
      ],
      "stateMutability": "nonpayable",
      "type": "constructor"
    },
    {
      "inputs": [],
      "name": "counter",
      "outputs": [
        {
          "internalType": "uint256",
          "name": "value",
          "type": "uint256"
        }
      ],
      "stateMutability": "view",
      "type": "function"
    },
    {
      "inputs": [],
      "name": "increase",
      "outputs": [],
      "stateMutability": "nonpayable",
      "type": "function"
    },
    {
      "inputs": [],
      "name": "value",
      "outputs": [
        {
          "internalType": "uint256",
          "name": "",
          "type": "uint256"
        }
      ],
      "stateMutability": "view",
      "type": "function"
    }
  ],
  "bytecode": "0x608060405234801561001057600080fd5b506040516102f63803806102f6833981810160405281019061003291906100df565b600073__$69fad24a0434cdadf4afcd45c858c7bb14$__639215a1e19091836040518363ffffffff1660e01b815260040161006e929190610122565b60006040518083038186803b15801561008657600080fd5b505af415801561009a573d6000803e3d6000fd5b505050505061014b565b600080fd5b6000819050919050565b6100bc816100a9565b81146100c757600080fd5b50565b6000815190506100d9816100b3565b92915050565b6000602082840312156100f5576100f46100a4565b5b6000610103848285016100ca565b91505092915050565b8082525050565b61011c816100a9565b82525050565b6000604082019050610137600083018561010c565b6101446020830184610113565b9392505050565b61019c8061015a6000396000f3fe608060405234801561001057600080fd5b50600436106100415760003560e01c80633fa4f2451461004657806361bc221a14610064578063e8927fbc14610082575b600080fd5b61004e61008c565b60405161005b9190610129565b60405180910390f35b61006c610098565b6040516100799190610129565b60405180910390f35b61008a6100a4565b005b60008060000154905090565b60008060000154905081565b600073__$69fad24a0434cdadf4afcd45c858c7bb14$__63427cd64c90916040518263ffffffff1660e01b81526004016100de919061014b565b60006040518083038186803b1580156100f657600080fd5b505af415801561010a573d6000803e3d6000fd5b50505050565b6000819050919050565b61012381610110565b82525050565b600060208201905061013e600083018461011a565b92915050565b8082525050565b60006020820190506101606000830184610144565b9291505056fea264697066735822122079c1159499ea065288d28508688462447cece97a6db7bde13108dd110105a7ae64736f6c63430008140033",
  "linkReferences": {
    "contracts/Count.sol": {
      "Count": [
        {
          "length": 20,
          "start": 54
        },
        {
          "length": 20,
          "start": 514
        }
      ]
    }
  },
  "deployedLinkReferences": {
    "contracts/Count.sol": {
      "Count": [
        {
          "length": 20,
          "start": 168
        }
      ]
    }
  }
}