{
  "_format": "hh-sol-artifact-1",
  "contractName": "CounterUpgradeable",
  "sourceName": "contracts/CounterUpgradeable.sol",
  "abi": [
    {
      "inputs": [],
      "stateMutability": "nonpayable",
      "type": "constructor"
    },
    {
      "inputs": [
        {
          "internalType": "address",
          "name": "target",
          "type": "address"
        }
      ],
      "name": "AddressEmptyCode",
      "type": "error"
    },
    {
      "inputs": [
        {
          "internalType": "address",
          "name": "implementation",
          "type": "address"
        }
      ],
      "name": "ERC1967InvalidImplementation",
      "type": "error"
    },
    {
      "inputs": [],
      "name": "ERC1967NonPayable",
      "type": "error"
    },
    {
      "inputs": [],
      "name": "FailedInnerCall",
      "type": "error"
    },
    {
      "inputs": [],
      "name": "InvalidInitialization",
      "type": "error"
    },
    {
      "inputs": [],
      "name": "NotInitializing",
      "type": "error"
    },
    {
      "inputs": [],
      "name": "UUPSUnauthorizedCallContext",
      "type": "error"
    },
    {
      "inputs": [
        {
          "internalType": "bytes32",
          "name": "slot",
          "type": "bytes32"
        }
      ],
      "name": "UUPSUnsupportedProxiableUUID",
      "type": "error"
    },
    {
      "anonymous": false,
      "inputs": [
        {
          "indexed": false,
          "internalType": "uint64",
          "name": "version",
          "type": "uint64"
        }
      ],
      "name": "Initialized",
      "type": "event"
    },
    {
      "anonymous": false,
      "inputs": [
        {
          "indexed": true,
          "internalType": "address",
          "name": "implementation",
          "type": "address"
        }
      ],
      "name": "Upgraded",
      "type": "event"
    },
    {
      "inputs": [],
      "name": "UPGRADE_INTERFACE_VERSION",
      "outputs": [
        {
          "internalType": "string",
          "name": "",
          "type": "string"
        }
      ],
      "stateMutability": "view",
      "type": "function"
    },
    {
      "inputs": [],
      "name": "increase",
      "outputs": [],
      "stateMutability": "nonpayable",
      "type": "function"
    },
    {
      "inputs": [
        {
          "internalType": "uint256",
          "name": "initialValue",
          "type": "uint256"
        }
      ],
      "name": "initialize",
      "outputs": [],
      "stateMutability": "nonpayable",
      "type": "function"
    },
    {
      "inputs": [],
      "name": "owner",
      "outputs": [
        {
          "internalType": "address",
          "name": "",
          "type": "address"
        }
      ],
      "stateMutability": "view",
      "type": "function"
    },
    {
      "inputs": [],
      "name": "proxiableUUID",
      "outputs": [
        {
          "internalType": "bytes32",
          "name": "",
          "type": "bytes32"
        }
      ],
      "stateMutability": "view",
      "type": "function"
    },
    {
      "inputs": [
        {
          "internalType": "address",
          "name": "newImplementation",
          "type": "address"
        },
        {
          "internalType": "bytes",
          "name": "data",
          "type": "bytes"
        }
      ],
      "name": "upgradeToAndCall",
      "outputs": [],
      "stateMutability": "payable",
      "type": "function"
    },
    {
      "inputs": [],
      "name": "value",
      "outputs": [
        {
          "internalType": "uint256",
          "name": "",
          "type": "uint256"
        }
      ],
      "stateMutability": "view",
      "type": "function"
    }
  ],
  "bytecode": "0x60a06040523073ffffffffffffffffffffffffffffffffffffffff1660809073ffffffffffffffffffffffffffffffffffffffff168152503480156200004457600080fd5b50620000556200005b60201b60201c565b620001cf565b60006200006d6200016560201b60201c565b90508060000160089054906101000a900460ff1615620000b9576040517ff92ee8a900000000000000000000000000000000000000000000000000000000815260040160405180910390fd5b67ffffffffffffffff80168160000160009054906101000a900467ffffffffffffffff1667ffffffffffffffff1614620001625767ffffffffffffffff8160000160006101000a81548167ffffffffffffffff021916908367ffffffffffffffff1602179055507fc7f505b2f371ae2175ee4913f4499e1f2633a7b5936321eed1cdaeb6115181d267ffffffffffffffff604051620001599190620001b2565b60405180910390a15b50565b60007ff0c57e16840df040f15088dc2f81fe391c3923bec73e23a9662efc9c229c6a00905090565b600067ffffffffffffffff82169050919050565b620001ac816200018d565b82525050565b6000602082019050620001c96000830184620001a1565b92915050565b608051611145620001f96000396000818161041f01528181610474015261072601526111456000f3fe6080604052600436106100705760003560e01c80638da5cb5b1161004e5780638da5cb5b146100e7578063ad3cb1cc14610112578063e8927fbc1461013d578063fe4b84df1461015457610070565b80633fa4f245146100755780634f1ef286146100a057806352d1902d146100bc575b600080fd5b34801561008157600080fd5b5061008a61017d565b6040516100979190610b22565b60405180910390f35b6100ba60048036038101906100b59190610cf5565b610183565b005b3480156100c857600080fd5b506100d16101a2565b6040516100de9190610d6a565b60405180910390f35b3480156100f357600080fd5b506100fc6101d5565b6040516101099190610d94565b60405180910390f35b34801561011e57600080fd5b506101276101fb565b6040516101349190610e2e565b60405180910390f35b34801561014957600080fd5b50610152610234565b005b34801561016057600080fd5b5061017b60048036038101906101769190610e7c565b61024f565b005b60005481565b61018b61041d565b61019482610503565b61019e8282610605565b5050565b60006101ac610724565b7f360894a13ba1a3210667c828492db98dca3e2076cc3735a920a3ca505d382bbc60001b905090565b600160009054906101000a900473ffffffffffffffffffffffffffffffffffffffff1681565b6040518060400160405280600581526020017f352e302e3000000000000000000000000000000000000000000000000000000081525081565b60016000808282546102469190610ed8565b92505081905550565b60006102596107ab565b905060008160000160089054906101000a900460ff1615905060008260000160009054906101000a900467ffffffffffffffff1690506000808267ffffffffffffffff161480156102a75750825b9050600060018367ffffffffffffffff161480156102dc575060003073ffffffffffffffffffffffffffffffffffffffff163b145b9050811580156102ea575080155b15610321576040517ff92ee8a900000000000000000000000000000000000000000000000000000000815260040160405180910390fd5b60018560000160006101000a81548167ffffffffffffffff021916908367ffffffffffffffff16021790555083156103715760018560000160086101000a81548160ff0219169083151502179055505b33600160006101000a81548173ffffffffffffffffffffffffffffffffffffffff021916908373ffffffffffffffffffffffffffffffffffffffff1602179055508560008190555083156104155760008560000160086101000a81548160ff0219169083151502179055507fc7f505b2f371ae2175ee4913f4499e1f2633a7b5936321eed1cdaeb6115181d2600160405161040c9190610f65565b60405180910390a15b505050505050565b7f000000000000000000000000000000000000000000000000000000000000000073ffffffffffffffffffffffffffffffffffffffff163073ffffffffffffffffffffffffffffffffffffffff1614806104ca57507f000000000000000000000000000000000000000000000000000000000000000073ffffffffffffffffffffffffffffffffffffffff166104b16107d3565b73ffffffffffffffffffffffffffffffffffffffff1614155b15610501576040517fe07c8dba00000000000000000000000000000000000000000000000000000000815260040160405180910390fd5b565b600160009054906101000a900473ffffffffffffffffffffffffffffffffffffffff1673ffffffffffffffffffffffffffffffffffffffff163373ffffffffffffffffffffffffffffffffffffffff1614610593576040517f08c379a000000000000000000000000000000000000000000000000000000000815260040161058a90610fcc565b60405180910390fd5b600073ffffffffffffffffffffffffffffffffffffffff168173ffffffffffffffffffffffffffffffffffffffff1603610602576040517f08c379a00000000000000000000000000000000000000000000000000000000081526004016105f990611038565b60405180910390fd5b50565b8173ffffffffffffffffffffffffffffffffffffffff166352d1902d6040518163ffffffff1660e01b8152600401602060405180830381865afa92505050801561066d57506040513d601f19601f8201168201806040525081019061066a9190611084565b60015b6106ae57816040517f4c9c8ce30000000000000000000000000000000000000000000000000000000081526004016106a59190610d94565b60405180910390fd5b7f360894a13ba1a3210667c828492db98dca3e2076cc3735a920a3ca505d382bbc60001b811461071557806040517faa1d49a400000000000000000000000000000000000000000000000000000000815260040161070c9190610d6a565b60405180910390fd5b61071f838361082a565b505050565b7f000000000000000000000000000000000000000000000000000000000000000073ffffffffffffffffffffffffffffffffffffffff163073ffffffffffffffffffffffffffffffffffffffff16146107a9576040517fe07c8dba00000000000000000000000000000000000000000000000000000000815260040160405180910390fd5b565b60007ff0c57e16840df040f15088dc2f81fe391c3923bec73e23a9662efc9c229c6a00905090565b60006108017f360894a13ba1a3210667c828492db98dca3e2076cc3735a920a3ca505d382bbc60001b61089d565b60000160009054906101000a900473ffffffffffffffffffffffffffffffffffffffff16905090565b610833826108a7565b8173ffffffffffffffffffffffffffffffffffffffff167fbc7cd75a20ee27fd9adebab32041f755214dbc6bffa90cc0225b39da2e5c2d3b60405160405180910390a26000815111156108905761088a8282610974565b50610899565b6108986109f8565b5b5050565b6000819050919050565b60008173ffffffffffffffffffffffffffffffffffffffff163b0361090357806040517f4c9c8ce30000000000000000000000000000000000000000000000000000000081526004016108fa9190610d94565b60405180910390fd5b806109307f360894a13ba1a3210667c828492db98dca3e2076cc3735a920a3ca505d382bbc60001b61089d565b60000160006101000a81548173ffffffffffffffffffffffffffffffffffffffff021916908373ffffffffffffffffffffffffffffffffffffffff16021790555050565b60606000808473ffffffffffffffffffffffffffffffffffffffff168460405161099e91906110f8565b600060405180830381855af49150503d80600081146109d9576040519150601f19603f3d011682016040523d82523d6000602084013e6109de565b606091505b50915091506109ee858383610a35565b9250505092915050565b6000341115610a33576040517fb398979f00000000000000000000000000000000000000000000000000000000815260040160405180910390fd5b565b606082610a4a57610a4582610ac4565b610abc565b60008251148015610a72575060008473ffffffffffffffffffffffffffffffffffffffff163b145b15610ab457836040517f9996b315000000000000000000000000000000000000000000000000000000008152600401610aab9190610d94565b60405180910390fd5b819050610abd565b5b9392505050565b600081511115610ad75780518082602001fd5b6040517f1425ea4200000000000000000000000000000000000000000000000000000000815260040160405180910390fd5b6000819050919050565b610b1c81610b09565b82525050565b6000602082019050610b376000830184610b13565b92915050565b6000604051905090565b600080fd5b600080fd5b600073ffffffffffffffffffffffffffffffffffffffff82169050919050565b6000610b7c82610b51565b9050919050565b610b8c81610b71565b8114610b9757600080fd5b50565b600081359050610ba981610b83565b92915050565b600080fd5b600080fd5b6000601f19601f8301169050919050565b7f4e487b7100000000000000000000000000000000000000000000000000000000600052604160045260246000fd5b610c0282610bb9565b810181811067ffffffffffffffff82111715610c2157610c20610bca565b5b80604052505050565b6000610c34610b3d565b9050610c408282610bf9565b919050565b600067ffffffffffffffff821115610c6057610c5f610bca565b5b610c6982610bb9565b9050602081019050919050565b82818337600083830152505050565b6000610c98610c9384610c45565b610c2a565b905082815260208101848484011115610cb457610cb3610bb4565b5b610cbf848285610c76565b509392505050565b600082601f830112610cdc57610cdb610baf565b5b8135610cec848260208601610c85565b91505092915050565b60008060408385031215610d0c57610d0b610b47565b5b6000610d1a85828601610b9a565b925050602083013567ffffffffffffffff811115610d3b57610d3a610b4c565b5b610d4785828601610cc7565b9150509250929050565b6000819050919050565b610d6481610d51565b82525050565b6000602082019050610d7f6000830184610d5b565b92915050565b610d8e81610b71565b82525050565b6000602082019050610da96000830184610d85565b92915050565b600081519050919050565b600082825260208201905092915050565b60005b83811015610de9578082015181840152602081019050610dce565b60008484015250505050565b6000610e0082610daf565b610e0a8185610dba565b9350610e1a818560208601610dcb565b610e2381610bb9565b840191505092915050565b60006020820190508181036000830152610e488184610df5565b905092915050565b610e5981610b09565b8114610e6457600080fd5b50565b600081359050610e7681610e50565b92915050565b600060208284031215610e9257610e91610b47565b5b6000610ea084828501610e67565b91505092915050565b7f4e487b7100000000000000000000000000000000000000000000000000000000600052601160045260246000fd5b6000610ee382610b09565b9150610eee83610b09565b9250828201905080821115610f0657610f05610ea9565b5b92915050565b6000819050919050565b600067ffffffffffffffff82169050919050565b6000819050919050565b6000610f4f610f4a610f4584610f0c565b610f2a565b610f16565b9050919050565b610f5f81610f34565b82525050565b6000602082019050610f7a6000830184610f56565b92915050565b7f556e617574686f72697a65640000000000000000000000000000000000000000600082015250565b6000610fb6600c83610dba565b9150610fc182610f80565b602082019050919050565b60006020820190508181036000830152610fe581610fa9565b9050919050565b7f4e657720696d706c656d656e746174696f6e2069732072657175697265640000600082015250565b6000611022601e83610dba565b915061102d82610fec565b602082019050919050565b6000602082019050818103600083015261105181611015565b9050919050565b61106181610d51565b811461106c57600080fd5b50565b60008151905061107e81611058565b92915050565b60006020828403121561109a57611099610b47565b5b60006110a88482850161106f565b91505092915050565b600081519050919050565b600081905092915050565b60006110d2826110b1565b6110dc81856110bc565b93506110ec818560208601610dcb565b80840191505092915050565b600061110482846110c7565b91508190509291505056fea2646970667358221220a76e3c658b53cbbff097ca8bbc2b23d1f0df3ef37317d89e8665d1b8d1a6d97064736f6c63430008140033",
  "linkReferences": {},
  "deployedLinkReferences": {}
}